:020000040000FA
:1000000028020020D5000000EF0000005907000082
:1000100000000000000000000000000000000000E0
:10002000000000000000000000000000F3000000DD
:100030000000000000000000F5000000710A000050
:10004000D5080000DD080000E5080000ED0800000C
:10005000E5050000A90D0000C90D0000D10D00004C
:10006000850700008D0700004D0A0000550A0000BA
:10007000650700006D070000910D0000990D00005C
:10008000A10D00007D070000B10D0000B90D0000BA
:10009000C10D0000C5080000CB0E0000F7080000ED
:1000A0007B030000CD080000BB0E0000C30E000063
:1000B00095070000750700007D060000DD050000C3
:1000C0000348854600F040F9004800476D030000F2
:1000D0002802002009480A4A002100A1814200D9D3
:1000E0000244084802600848804708480047FEE785
:1000F000FEE7FEE7FEE7FEE7FEE700000000002067
:100100000000000008ED00E04D0D0000C1000000FF
:1001100030B50B46014600202022012409E00D469F
:10012000D5409D4205D31D469540491B2546954027
:1001300040191546521E002DF1DC30BD03460B431D
:100140009B0703D009E008C9121F08C0042AFAD28D
:1001500003E00B780370401C491C521EF9D2704713
:10016000F8B502464A40D40F42004B0052085B08E3
:100170009A4202D20246084611464A0023D0C30DD5
:100180004A00DDB2120EAD1A202D35DA49020126E1
:10019000490AF6058A19002C00D0524220214F1B33
:1001A0001146B9402A411018C20D9A4221D0002CA4
:1001B00017D0012D08DCDA05801AD20F8019D2077A
:1001C000DBB200F087F8F8BDDA05801A01234000A1
:1001D0001B06C01880185A428018CA0F10434900E5
:1001E00007E04908C2071143DA05801A8019400860
:1001F000801800F067F8F8BD61000122511A001B59
:10020000F7E70122D2075140AAE70122D207504066
:10021000A6E770B502464A40D50F40004A00ED07F8
:1002200040085208002814D0002A12D0C40DD30D63
:1002300041020120C0055202490A520AE41A091873
:1002400012187D34914201D3641C00E04900002C57
:1002500001DA002070BD0023914201D3891A0343C3
:10026000400849000028F7D100290AD0914202D164
:100270000121C90705E0914201D2012101E00121DC
:10028000C943E005C018401900F01CF870BD10B556
:1002900000229623114600F01DF810BD41004002D7
:1002A0000122400AD205090E80187F2901DA0020B8
:1002B0007047962903DC9622511AC8407047963938
:1002C00088407047002904DA401C490001D14008E9
:1002D0004000704770B40024050C05D110240004C0
:1002E00002D1002921D01124050E01D100020834C9
:1002F000050F01D10001241D850F01D18000A41C30
:10030000002801DB4000641C002908D020252E1B9A
:100310000D46F540A14000D00121294308430106C4
:100320001B1B000ADB1D02D5002070BC7047DB05DB
:10033000181880180029F8DA401C4900F5D170BC63
:100340004008400070470000064C0125064E05E0BD
:10035000E36807CC2B430C3C98471034B442F7D3E6
:10036000FFF7B2FE3C1000005C10000010B500F07A
:10037000EDFC00F009FE002010BD10B5C046C046DF
:1003800010BD10B5002000F0A3FC062000F0C4FC56
:100390000121022000F070FB10BD00000FB57F208E
:1003A000400602900A480B48039002A800F03CFA6D
:1003B00001206A4610700321517000219170D170A4
:1003C000107150719171D071684600F0E7F90FBD5E
:1003D000FFF0FFFFF0E0FFFF10B50921002000F063
:1003E000A7F90A21002000F0A3F90B21002000F05A
:1003F0009FF90C21002000F09BF90821002000F05B
:1004000097F90921802000F093F90821802000F05D
:100410008FF90721802000F08BF90621802000F061
:1004200087F90F21402000F083F90E21402000F0D1
:100430007FF90D21402000F07BF90C21402000F0D5
:1004400077F90B21402000F073F90A21402000F0D9
:100450006FF90221402000F06BF90121402000F0EB
:1004600067F90021402000F063F90521802000F0A9
:100470005FF90421802000F05BF90721002000F0E3
:1004800057F90621002000F053F90521002000F063
:100490004FF90421002000F04BF90321002000F067
:1004A00047F90221002000F043F90121002000F06B
:1004B0003FF90021084600F03BF90321802000F0BD
:1004C00037F90321402000F033F90621402000F0E5
:1004D0002FF90521402000F02BF90421402000F0E5
:1004E00027F910BD1CB50621684600F01BFD01214F
:1004F0001C2000F0E3FB0020694608706A460821D2
:10050000402000F0C7F807220821402000F006F93B
:100510000120694608706A460921402000F0BAF8B7
:1005200007220921402000F0F9F81CBD1FB5102159
:10053000684600F0F7FC0121142000F0BFFB012108
:100540006B461970022018710020187253225A72DB
:1005500014229A7216221A730322DA7204225A7330
:1005600019229A735971D880184600F0EDF91FBD11
:1005700010B588B01021684600F0D4FC022107A80D
:1005800000F0D0FC0C2104A800F0CCFC01210020DC
:1005900000F094FBC02069460870002048800420C9
:1005A00048704B20C001039001204002888000F079
:1005B00079FB0124A40702906946204600F026FC3E
:1005C0000021204600F008FC0121204600F004FC38
:1005D0000021204600F00EFC08B010BD10B5C0464A
:1005E000C04610BD10B5C046C04610BD10B50024B1
:1005F000E4432146002000F01FF92146012000F0CD
:100600001BF92146022000F017F92146032000F0D3
:1006100013F910BD30B5C406E40E0123A340134CFA
:1006200023608407E50EFF24AC408907090EA9402A
:1006300000280BDA0007000F083885080C48AD00C9
:100640002818C569A5430D43C56107E08508094819
:10065000AD0028180568A5430D430560012A02D0A6
:100660000548036030BD04488038FAE780E200E0C6
:1006700000ED00E000E400E080E100E010B5C046DD
:10068000C046C046C04610BD0068C840C007C00F85
:100690007047000070B504461D4815460E460022FE
:1006A000201800F0DBF9B1001A4A09190020891856
:1006B000086017482A780C383146201800F0CEF927
:1006C00013486A7810303146201800F0C7F91048F6
:1006D000AA7814303146201800F0C0F90C48EA78A6
:1006E00018303146201800F0B9F909482A7920302D
:1006F0003146201800F0B2F9074988680122D20378
:1007000090436A79D207120C10438860002070BDB4
:100710000C0D0240000C0240000F02408900081836
:10072000024940180260002070470000000C02409F
:10073000034B10B50122C01800F090F9002010BD45
:100740000C0D0240034B10B50122C01800F086F9D1
:10075000002010BD100D024008B5002000900028B8
:10076000FDD008BD10B5C046C04610BD10B5C0468E
:10077000C04610BD10B5C046C04610BD10B5C0463D
:10078000C04610BD10B5C046C04610BD10B5C0462D
:10079000C04610BD10B5C046C04610BD21490A680C
:1007A00007235B029A4303785B071B0D1A430A6019
:1007B0000A68FF23C1339A4343785B07DB0D1A4372
:1007C0000A600A6820239A438378DB079B0E1A434A
:1007D0000A600A6818239A43C3789B07DB0E1A4302
:1007E0000A600A6806239A4303799B075B0F1A4342
:1007F0000A604A688B159A434379DB07DB0D1A437D
:100800004A604A6880239A438379DB071B0E1A43A8
:100810004A600A68C07952085200C007C00F0243FC
:100820000A607047005C004002490268CA60406884
:1008300008617047005C0040054A0F2801D9042078
:1008400070478000801802680A43026000207047E9
:10085000405C004070B502214E07304600F0D1FAEE
:10086000002805D10421304600F0CBFA002807D03B
:100870000221304600F0B0FA0421304600F0ACFA14
:100880000021304600F0BDFA002816D00021304685
:1008900000F0A2FA304600F0F3FA084D084C287038
:1008A000002020702078295C304600F0ECFA207897
:1008B000401CC1B221702029F4D370BD0800002073
:1008C0000400002010B5C046C04610BD10B5C0469B
:1008D000C04610BD10B500F00DF810BD10B5C046F3
:1008E000C04610BD10B5C046C04610BD10B5C046CC
:1008F000C04610BD704710B5C046C04610BD0000D0
:1009000010B502460721024800F0A8F810BD00000B
:1009100000140040034630B50120020293420FD874
:10092000084A146BC503C907AC43090C0C43146394
:10093000116BDB05490A4902DB0D1943116330BD18
:10094000042030BD0014004070B504460020FFF7BD
:10095000D7FF0F4D2868082188432178C907090F60
:1009600008432860601C00F015F868680721090238
:10097000884321794907490D084368606179E08817
:10098000FFF7C8FF2046083000F02CF870BD0000CB
:1009900000140040124A1168131499430378DB07CE
:1009A0005B0C194311600178002902D0012907D09E
:1009B00013E011688078C908C9004007400F0AE0B9
:1009C0004078402801D30420704711683F231B0260
:1009D00099438006800C014311600020704700009D
:1009E0000014004010B5184A7D211368C9001B0689
:1009F0000ED5536801242343536002E053689B07DC
:100A000004D4491E0904090CF8D11BE0002919D0AF
:100A1000017891604178D1608178116101799161AB
:100A20004179D16181791162C07850615068400884
:100A3000400050601068000602D550688007FCD462
:100A4000002010BD092010BD0014004010B5C046A4
:100A5000C04610BD10B5C046C04610BD01238B4036
:100A60000168012A02D09943016070471943FBE7EE
:100A700010B5C046C04610BDF3B581B00C46002687
:100A800000F028FA002C00D00124344D2F6A01997F
:100A9000E8030B0000F02AFA05040F232F455E003F
:100AA00028684008400020432860002C53D0E868A4
:100AB0000005FAD54FE0296A01432962284AD06827
:100AC00003210843D060286802218843610008435D
:100AD0002860002C3FD028694006FAD53BE0286802
:100AE00004218843A10008432860002C33D06869A2
:100AF000C004FAD52FE0296A01432962184A403A16
:100B0000D068032189030843D060286808218843FE
:100B1000E10008432860002C1DD0A8694006FAD5E2
:100B200019E0286A01210904084328620D4A106867
:100B3000012108431060142000F0FEF928681021FC
:100B40008843210108432860002C04D0E86B40034F
:100B5000FAD500E004262F623046FEBD002000409A
:100B6000C00D02400024004010B58AB000241422B9
:100B700048496846FFF7E2FA4648001F00680890B7
:100B80000020059006900790434801886A469183AB
:100B90004188518381881183C088D0823E482030AB
:100BA00000883E49908208680006420F3C481300C6
:100BB00000F09CF905042A2C383B6800C8686A4696
:100BC0004005928B400D904201D1049C5AE0C868C8
:100BD0006A464005528B400D904201D1039C51E082
:100BE000C8686A464005128B400D904201D1029CB4
:100BF00048E0C8686A464005D28A400D904201D15B
:100C0000019C3FE0009C3DE004463BE06846808A52
:100C10004A699205920D9042684601D1448C31E0B8
:100C2000048C2FE00124E4032CE0CA6BD24392072A
:100C300024D16846808BCA685205520D904201D17A
:100C400004981BE06846408BCA685205520D9042DA
:100C500001D1039812E06846008BCA685205520D14
:100C6000904201D1029809E06846C08ACA685205DC
:100C7000520D904201D1019800E00098CA6BD20554
:100C8000140F444308680AB04005410F2046C8408D
:100C900010BD000020100000000C100000200040DB
:100CA0000048E80110B5FFF75FFF03490968C90470
:100CB000890FC84010BD0000002000400A4610B552
:100CC00001460248FFF7CAFE002010BD2020004068
:100CD000064940004018008805494005CA68400D93
:100CE000D20AD2020243CA6000207047000C1000F2
:100CF0000020004006494000401800880549800552
:100D00004A69800D920A920202434A6100207047AC
:100D1000000C10000020004010B5044600F0DAF886
:100D2000054A51680720400281436007000D0143D6
:100D30005160002010BD00000020004010B5FFF7FA
:100D400013FF0149086010BD0000002010B50E48D7
:100D500040880E4C80056169800D890A8902014333
:100D60006161094820380089E1684005400DC90AE1
:100D7000C9020143E160FFF7E1FF206A216AE20353
:100D800011432162206210BD200C100000200040A1
:100D900010B5C046C04610BD10B5C046C04610BD17
:100DA00010B5C046C04610BD10B5C046C04610BD07
:100DB00010B5C046C04610BD10B5C046C04610BDF7
:100DC00010B5C046C04610BD10B5C046C04610BDE7
:100DD00010B5C046C04610BD10B500221430FFF754
:100DE0003DFE002010BD10B50122001DFFF736FEAC
:100DF000002010BD10B50122001DFFF72FFE0020BE
:100E000010BD10B51030FFF73FFC10BD7CB5054696
:100E10001A480C0003C8019100900FD000206860B0
:100E20006088617822780843A1881143084368608C
:100E30002078402804D0C02802D01DE004207CBDCA
:100E4000A0886946400A8000095CE0688840FFF796
:100E50001EFA0646A068FFF71AFA3146FFF7D9F9DD
:100E60003F210906FFF77CF9FFF718FA80B2A86165
:100E700004212846FFF7B7FF00207CBD3410000096
:100E80000068C0B2704770B50D4604460321204685
:100E9000FFF7B7FF0028F9D02068000A00022843B6
:100EA000206001212046FFF7ACFF0028F9D0012186
:100EB0002046FFF791FF002070BD10B5C046C04628
:100EC00010BD10B5C046C04610BD10B5C046C046E6
:100ED00010BD0000034802498160034981607047EA
:100EE0005A5A000000200040A5A5000030B4744606
:100EF000641E2578641CAB4200D21D46635D5B0016
:100F0000E31830BC184702E008C8121F08C1002AC5
:100F1000FAD170477047002001E001C1121F002A7A
:100F2000FBD17047002805D00022491E02D3027071
:100F3000401CFAE770470000F8B504460F4D0E4814
:100F400068610026AE61052028610D480127006810
:100F50003F06009008E0AE610A490098FFF7D8F814
:100F6000381AA9698142FCD8641EF4D22869400865
:100F700040002861F8BD0000FFFFFF0000E000E036
:100F800000000020A08601001CB501210220FFF70F
:100F900073FD1120FFF7AEFE01211620FFF78EFE34
:100FA000FFF7FCF9FFF718FA01211C20FFF786FE76
:100FB00000246846047001258570C47044706A4638
:100FC0000421C020FFF766FB0421C020FFF7BAFB15
:100FD000FFF7ACFAFFF7D5F901211C20FFF76EFEF1
:100FE0006846057045708570C470047145716A4625
:100FF0000221C020FFF74EFBFFF774FAFFF7B8FAA3
:101000000120FFF77DFC012203210020FFF702FBF6
:10101000FFF7ECFAFFF71EFCFCE7000000800096EB
:1010200000093D0000127A000024F40040865101BE
:1010300000366E0104000000030000005C10000098
:101040000000002008000000060F000064100000EF
:101050000800002020020000160F000000093D00DB
:04106000000000008C
:04000005000000C136
:00000001FF
